{
  "contractName": "SimpleContract",
  "abi": [
    {
      "constant": true,
      "inputs": [
        {
          "name": "",
          "type": "uint256"
        }
      ],
      "name": "idList",
      "outputs": [
        {
          "name": "",
          "type": "uint256"
        }
      ],
      "payable": false,
      "stateMutability": "view",
      "type": "function"
    },
    {
      "constant": false,
      "inputs": [
        {
          "name": "_id",
          "type": "uint256"
        },
        {
          "name": "_data",
          "type": "string"
        }
      ],
      "name": "setData",
      "outputs": [],
      "payable": false,
      "stateMutability": "nonpayable",
      "type": "function"
    },
    {
      "constant": true,
      "inputs": [
        {
          "name": "_id",
          "type": "uint256"
        }
      ],
      "name": "getData",
      "outputs": [
        {
          "name": "",
          "type": "string"
        }
      ],
      "payable": false,
      "stateMutability": "view",
      "type": "function"
    }
  ],
  "bytecode": "0x6060604052341561000f57600080fd5b6103dd8061001e6000396000f300606060405260043610610057576000357c0100000000000000000000000000000000000000000000000000000000900463ffffffff1680630178fe3f1461005c57806318562dae146100f85780636313531f1461015e575b600080fd5b341561006757600080fd5b61007d6004808035906020019091905050610195565b6040518080602001828103825283818151815260200191508051906020019080838360005b838110156100bd5780820151818401526020810190506100a2565b50505050905090810190601f1680156100ea5780820380516001836020036101000a031916815260200191505b509250505060405180910390f35b341561010357600080fd5b61015c600480803590602001909190803590602001908201803590602001908080601f01602080910402602001604051908101604052809392919081815260200183838082843782019150505050505091905050610250565b005b341561016957600080fd5b61017f60048080359060200190919050506102a8565b6040518082815260200191505060405180910390f35b61019d6102cc565b600160008381526020019081526020016000208054600181600116156101000203166002900480601f0160208091040260200160405190810160405280929190818152602001828054600181600116156101000203166002900480156102445780601f1061021957610100808354040283529160200191610244565b820191906000526020600020905b81548152906001019060200180831161022757829003601f168201915b50505050509050919050565b806001600084815260200190815260200160002090805190602001906102779291906102e0565b5060016002805480600101828161028e9190610360565b916000526020600020900160008590919091505550505050565b6002818154811015156102b757fe5b90600052602060002090016000915090505481565b602060405190810160405280600081525090565b828054600181600116156101000203166002900490600052602060002090601f016020900481019282601f1061032157805160ff191683800117855561034f565b8280016001018555821561034f579182015b8281111561034e578251825591602001919060010190610333565b5b50905061035c919061038c565b5090565b81548183558181151161038757818360005260206000209182019101610386919061038c565b5b505050565b6103ae91905b808211156103aa576000816000905550600101610392565b5090565b905600a165627a7a72305820ede12487240c5e088e6ac5396d8b4c179667beb17d638f1ec07f31452a87c8070029",
  "source": "pragma solidity ^0.4.0;\r\n\r\ncontract SimpleContract {\r\n\r\n\tstring data;\r\n    mapping(uint => string) dataMap;\r\n\r\n    uint[] public idList;\r\n\r\n    function setData(uint _id, string _data) public {\r\n        dataMap[_id] = _data;\r\n        idList.push(_id)-1;\r\n    }\r\n\r\n    function getData(uint _id) public constant returns (string) {\r\n        return (dataMap[_id]);\r\n    }\r\n}\r\n",
  "sourcePath": "D:\\PROJECTS\\TRUFFLE ANGULAR BOX\\contracts\\SimpleContract.sol",
  "compiler": {
    "name": "solc",
    "version": "0.4.19+commit.c4cbbb05.Emscripten.clang"
  },
  "schemaVersion": "2.0.0",
  "updatedAt": "2018-03-20T21:30:08.441Z"
}